:020000040800F2
:10000000681100209D010008650A000849080008E1
:10001000610A0008D1040008071D00080000000064
:100020000000000000000000000000006510000853
:100030002D05000800000000AD0D00087D1500082A
:10004000B7010008B7010008B7010008B7010008B0
:10005000B7010008B7010008B7010008B7010008A0
:10006000B7010008B7010008B1050008B701000892
:10007000B7010008B7010008B7010008B701000880
:10008000B7010008B7010008B7010008B701000870
:10009000B7010008B7010008B7010008050600080D
:1000A000B7010008B7010008B7010008B701000850
:1000B000B7010008FD15000825160008B701000863
:1000C000B7010008B7010008B7010008B701000830
:1000D000B7010008111A0008311A0008B70100081A
:1000E00061050008B7010008B7010008B701000862
:1000F000B7010008B7010008B7010008B701000800
:10010000B7010008B70100085D160008B701000834
:10011000B7010008B701000879160008B701000808
:10012000B7010008B7010008B7010008B7010008CF
:10013000B7010008B7010008B7010008B7010008BF
:10014000B7010008B7010008B7010008B7010008AF
:10015000B7010008B7010008B7010008B70100089F
:10016000B7010008B7010008B7010008B70100088F
:10017000B7010008B7010008B7010008B70100087F
:10018000B7010008B7010008DFF80CD000F05AF8FA
:10019000004800477D240008681100200648804779
:1001A00006480047FEE7FEE7FEE7FEE7FEE7FEE75C
:1001B000FEE7FEE7FEE7FEE7951500088901000867
:1001C00040EA01039B0703D009E008C9121F08C0D9
:1001D000042AFAD203E011F8013B00F8013B521E59
:1001E000F9D2704730B505462A460B4612F8010B86
:1001F00013F8014B08B1A042F8D01CB1002802D07E
:100200006D1CF1E7284630BD421C10F8011B002987
:10021000FBD1801A704730B50B46014600202022E2
:10022000012409E021FA02F59D4205D303FA02F503
:10023000491B04FA02F52844151EA2F10102F1DC63
:1002400030BD0000064C074D06E0E06840F00103B9
:1002500094E8070098471034AC42F6D3FFF798FFB4
:10026000902D0008B02D000870B58D1810F8014BC6
:1002700014F0030201D110F8012B231106D110F85C
:10028000013B03E010F8016B01F8016B521EF9D13C
:10029000ABB110F8012B04F00C048A1A0C2C03D01B
:1002A000A2EB84129B1C08E010F8014BA2EB042285
:1002B000F8E712F8014B01F8014B5B1EF9D5A94292
:1002C000D4D3002070BD21B1826842F00102826067
:1002D00003E0826822F00102826070470021084A30
:1002E0001168084A1140D0E900231A4383681A4371
:1002F000C3681A431143044AC2F80413704700004C
:1003000004230140E030FCFF002001400146C86C9E
:1003100080B270470246002013680B400BB10120E9
:1003200000E000207047000030B5024600200023A6
:100330005068104C20400D790C6844EA0524204395
:10034000506090680C4C2040D1E903542C438D68D8
:100350002C434D7944EA450420439060D06A20F450
:1003600070000C7D641EE4B2234340EA0350D06267
:1003700030BD0000FFFEFFFCFDF7FFC0F0B50446F6
:100380000D4600200021092D11DDE068A5F10A06C7
:1003900006EB4607072606FA07F18843A5F10A0689
:1003A00006EB460603FA06F10843E0600CE020691C
:1003B00005EB4507072606FA07F1884305EB4506D6
:1003C00003FA06F108432061072A0FDA606B561E14
:1003D00006EB86071F2606FA07F18843561E06EB32
:1003E000860605FA06F10843606322E00D2A0FDA5B
:1003F000206BD61F06EB86071F2606FA07F18843F7
:10040000D61F06EB860605FA06F10843206310E0C6
:10041000E06AA2F10D0606EB86071F2606FA07F131
:100420008843A2F10D0606EB860605FA06F108439D
:10043000E062F0BD816841F080418160704700005A
:1004400010B54FF48061024800F0F4F910BD0000CF
:10045000000402401CB50121022000F0E3FC012051
:100460008DF8040000208DF806004FF480600090A5
:1004700000208DF805006946014800F067F91CBDB1
:100480000004024010B5002412E04FF480610A48D5
:1004900000F0D2F94FF47A7001F052FE4FF480610F
:1004A000054800F0C7F94FF47A7001F049FE641C6A
:1004B000032CEADB10BD00000004024010B54FF42D
:1004C0008061024800F0B8F910BD0000000402404D
:1004D00000BFFEE770B505460E4600F0B9FF08B351
:1004E000002404E000F082FD0F490855641C052C2F
:1004F000F8DB0D4800780C49497808440A498978A6
:1005000008440949C978084407490979884207D14C
:10051000054800782870044880783070012070BD4C
:1005200000F080FE0020FAE7AA04002070471CB506
:100530000121880300F0A6FC0D21022000F094FDAB
:100540004FF40050009001208DF8060000208DF837
:1005500004000C208DF80500684600F081F81CBDF1
:1005600010B54FF4005000F06FF830B14FF4005068
:1005700000F064F801200149086010BD0C00002063
:100580001CB50121880300F07DFC0421084600F021
:100590006BFD1020009001208DF8060000208DF8E2
:1005A00004000C208DF80500684600F059F81CBDC9
:1005B00010B5102000F048F828B1102000F03EF8E7
:1005C00001200149086010BD000000201CB5012178
:1005D000880300F057FC0521042000F045FD0621AA
:1005E000042000F041FD6020009001208DF80600FD
:1005F00000208DF804000C208DF80500684600F0FE
:100600002FF81CBD10B5202000F01EF830B12020BE
:1006100000F014F801200749086009E0402000F0CC
:1006200013F828B1402000F009F8012002490860C1
:1006300010BD0000040000200800002001490860EF
:1006400070470000143C014001460020034A126834
:100650000A400AB1012000E000207047143C01402C
:10066000002123498279002A3AD00A461268036899
:100670009A430B461A600A1D126803689A430B1DC1
:100680001A60027911440A6803681A430A60184A1A
:100690000832126803689A43154B08331A601A1D12
:1006A000126803689A43124B0C331A604279102A7D
:1006B0000ED11A1F126803681A430D4B08331A60D3
:1006C0001A1D126803681A43094B0C331A600DE0B7
:1006D0000749427911440A6803681A430A6005E031
:1006E000027911440A6803689A430A60704700005F
:1006F000003C014010B54FF40041024800F09AF868
:1007000010BD0000000402401CB50121022000F0D1
:1007100089FB01208DF80400C003009000208DF8B3
:10072000060001208DF805006946024800F00EF829
:100730001CBD00000004024010B54FF40041024807
:1007400000F07AF810BD000000040240F0B50A463F
:1007500000210023002400BF3DE0012505FA01F33C
:10076000156805EA03049C4234D105684F0003264E
:10077000BE40B543056015794E00B5400668354367
:1007800005601579012D02D01579022D16D18568E5
:100790004F000326BE40B543856055794E00B540F5
:1007A000866835438560456801268E40B5434560BF
:1007B000456896798E40B6B235434560C5684F00AE
:1007C0000326BE40B543C560D5794E00B540C66826
:1007D0003543C560491C1029BFD3F0BDF0B50023D7
:1007E00000244D07ED0E02FA05F3CE1000F12005AE
:1007F00055F826504E07F70E0F26BE40B543CF10D2
:1008000000F1200646F82750CE1000F1200555F8DB
:10081000265045EA0304CE1000F1200545F8264095
:10082000F0BD0246002013690B400BB1012000E02F
:1008300000207047418370470183704742694A40F6
:10084000426170474161704700BFFEE71CB501215E
:10085000022000F0E7FA01208DF804008DF8060070
:10086000C020009069460248FFF770FF1CBD0000E1
:100870000004024010B540210D48FFF7DBFF00F0F7
:10088000C3FB40210A48FFF7D7FF052001F074FCA5
:1008900080210748FFF7C5FF40B940210448FFF712
:1008A000C9FF052001F068FC002010BD0120FCE715
:1008B0000004024070B5054640211848FFF7BAFF12
:1008C00000F0BAFB40211548FFF7B4FF022001F009
:1008D00053FC07241EE00120A040284020B18021C5
:1008E0000E48FFF7A9FF03E080210C48FFF7A2FFA5
:1008F000022001F041FC40210848FFF79DFF022043
:1009000001F03AFC40210548FFF794FF022001F076
:1009100033FC641E002CDEDA70BD000000040240CF
:1009200010B5AE2001F0A8FA002001F0A5FA1020C1
:1009300001F0A2FA402001F09FFA812001F09CFA18
:10094000CF2001F099FAA12001F096FAC82001F019
:1009500093FAA62001F090FAA82001F08DFA3F202A
:1009600001F08AFAD32001F087FA002001F084FA1E
:10097000D52001F081FA802001F07EFAD92001F023
:100980007BFAF12001F078FADA2001F075FA1220F2
:1009900001F072FADB2001F06FFA402001F06CFAEE
:1009A000022001F069FA8D2001F066FA142001F0AE
:1009B00063FAA42001F060FAA62001F05DFAAF20EE
:1009C00001F05AFAAF2001F057FA002000F002F9C6
:1009D00010BD00001FB50121142000F023FA0020F3
:1009E0008DF80C007020029001208DF80F008DF81A
:1009F0000D0002A90948FFF7A9FE00208DF80400A8
:100A00004FF40050009001208DF807008DF805008C
:100A100069460348FFF79AFE1FBD00000010024020
:100A2000000802401CB50121102000F0FBF9012054
:100A30008DF8040000208DF806004FF4E06000906F
:100A400000208DF8050069460448FFF77FFE4FF44B
:100A5000E0610248FFF7F6FE1CBD000000100240F6
:100A600000BFFEE7704708B54FF4C06000F0A8F87B
:100A70000A208DF8000001208DF8030000208DF879
:100A8000010001208DF80200684600F05DF8172093
:100A90008DF8000001208DF8030000208DF8010082
:100AA00001208DF80200684600F04EF828208DF8ED
:100AB000000000208DF8010001208DF8020068463A
:100AC00000F042F836208DF8000001208DF8030078
:100AD00002208DF801008DF80200684600F034F81D
:100AE0001E208DF8000001208DF8030002208DF8F3
:100AF000010001208DF80200684600F025F81D2055
:100B00008DF80000684600F01FF832208DF80000D4
:100B1000684600F019F825208DF8000000208DF8B7
:100B2000010001208DF80200684600F00DF8262033
:100B30008DF8000000208DF8010002208DF80200E1
:100B4000684600F001F808BD70B5002100230F22AF
:100B5000C4781CB3174C246804F4E064C4F5E06462
:100B6000C4F30721C1F10404E3B20A4144789C4074
:100B7000E1B28478144021430C07210E0E4C057815
:100B80006155047804F01F050124AC4005786D110F
:100B9000AD0005F1E025C5F8004109E0047804F056
:100BA0001F050124AC40054D0678761145F8264016
:100BB00070BD00000CED00E000E400E080E100E02A
:100BC00002490143024A1160704700000000FA0523
:100BD0000CED00E070B50646002415E004F1B0010C
:100BE000C8B201F049F9002001F046F9102001F0E7
:100BF00043F9002504E0304601F055F9681CC5B200
:100C0000802DF8DB601CC4B2082CE7DB70BD70B52A
:100C100004460D4605F1B001C8B201F02DF91021CE
:100C200041EA141001F028F904F00F0001F024F952
:100C300070BD2DE9F04107460E46154600243146A9
:100C40003846FFF7E4FF00BF04E0285D01F02BF910
:100C5000601CC4B2102CF8DB701CC1B23846FFF720
:100C6000D6FF002406E004F11001685C01F01BF9D6
:100C7000601CC4B2102CF6DBBDE8F0812DE9F04118
:100C800006460F469046002445462AE0394630463F
:100C9000FFF7BDFF002409E02978203904EB01119A
:100CA000124A505C01F0FFF8601CC4B2082CF3DB60
:100CB000781CC1B23046FFF7AAFF00240BE0297868
:100CC0002039082202EB01112144084A505C01F04E
:100CD000EAF8601CC4B2082CF1DB6D1C06F10800B8
:100CE000C6B228780028D1D1BDE8F081442600089A
:100CF00000B58BB00121084600F0C4F80121102096
:100D000000F090F8274800F015FD0122092126483F
:100D1000FFF764FD02208DF8280000208DF82A00DE
:100D20004FF40070099002208DF8290001208DF801
:100D30002B0009A91C48FFF709FD0020ADF81A0097
:100D400042F2CF00ADF81800632007900020ADF804
:100D5000200006A9134800F019FE6020ADF8040039
:100D60000120ADF806000220ADF8120064200390C7
:100D700001A90C4800F0C0FD08210A4800F0FAFD66
:100D80000121084800F0ACFC0121064800F0C3FC3A
:100D90000121044800F0B3FC0021024800F0F3FDFB
:100DA0000BB000BD00000140001002407047000081
:100DB00000B58DB00121084600F034F80121080289
:100DC00000F060F803208DF8300001200B90022025
:100DD0008DF831000BA91148FFF7B8FC00200790EF
:100DE000089007A8FFF77AFA002001908DF8090013
:100DF0000590039001208DF8180001A90848FFF71D
:100E000093FA0023012219460548FFF7B7FA01219A
:100E10000348FFF758FA0DB000BD00000000024083
:100E20000020014029B1064A12680243044B1A60AF
:100E300004E0034A12688243014B1A6070470000C5
:100E40003038024029B1064A12680243044B1A6046
:100E500004E0034A12688243014B1A6070470000A5
:100E60004038024029B1064A12680243044B1A6016
:100E700004E0034A12688243014B1A607047000085
:100E80002038024029B1064A12680243044B1A6016
:100E900004E0034A12688243014B1A607047000065
:100EA0004438024029B1064A12680243044B1A60D2
:100EB00004E0034A12688243014B1A607047000045
:100EC00024380240F0B5002100220024022500262B
:100ED0000223324F3F6807F00C0121B1042905D0ED
:100EE000082937D105E02E4F076036E02D4F076007
:100EF00033E02A4F3F1F3F68C7F38056274F3F1FFD
:100F00003F6807F03F036EB1264FB7FBF3F7DFF8FA
:100F10008CC0ACF1040CDCF800C0CCF3881C07FBDF
:100F20000CF40CE01E4FB7FBF3F7DFF870C0ACF128
:100F3000040CDCF800C0CCF3881C07FB0CF4174F42
:100F40003F1F3F68C7F301477F1C7D00B4FBF5F7E7
:100F5000076002E0124F076000BF00BF0F4F3F68FD
:100F600007F0F0010909104F7A5C0768D740476025
:100F70000A4F3F6807F4E051890A0B4F7A5C4768D3
:100F8000D7408760054F3F6807F46041490B064F23
:100F90007A5C4768D740C760F0BD0000083802405F
:100FA0000024F40000127A004F09002010B500F070
:100FB00021F900BF08210C48FFF733FC0128F9D0C4
:100FC00000BF08210848FFF72CFC0028F9D0282092
:100FD00001F0D2F808210448FFF723FC012800D1D2
:100FE00010BD0020FCE700000000024070B50025A5
:100FF000072405E0FFF7DAFFA0402843C5B2641ECE
:10100000002CF7DA284670BD1CB501210220FFF73D
:1010100009FF00208DF804008020009001208DF849
:10102000070003208DF8050069460248FFF78EFB94
:101030001CBD0000000402401CB501210220FFF786
:10104000F1FE01208DF804008DF80600802000904C
:1010500003208DF8050069460148FFF777FB1CBDAA
:10106000000402407047000030B500228B071C0FBF
:101070000F2303FA04F20B4B8C1053F824309343E4
:10108000084C8D1044F8253023468C1053F824303A
:101090008C07240F00FA04F42343024C8D1044F80B
:1010A000253030BD0838014070B590B004460D467B
:1010B00016462B4622460CA106A8009600F01CFFFF
:1010C00014220CA101A8FFF77BF801A800F06EFE26
:1010D000642001F035F806A800F068FE642001F0F5
:1010E0002FF810B070BD000025643A25643A2564DD
:1010F0000D0A000041542B43495053454E443D30A6
:101100002C31300D0A0000000CB500200190009039
:101110003448006840F480303249086000BF3148EC
:10112000006800F4003000900198401C0190009885
:1011300018B90198B0F5A04FF1D12A48006800F421
:10114000003010B10120009001E0002000900098D4
:10115000012846D123484030006840F080502149A2
:10116000403108602048006840F440401E49086053
:101170001C48083000681B490831086008460068B0
:1011800040F4004008600846006840F4A050086041
:101190001648091F0860081F006840F08070091F8A
:1011A000086000BF0F48006800F000700028F9D008
:1011B00040F205700E4908600A480830006820F0C7
:1011C00003000849083108600846006840F0020042
:1011D000086000BF03480830006800F00C000828D1
:1011E000F8D10CBD003802400070004008544007A0
:1011F000003C02401CB501210846FFF713FE002009
:101200008DF804000820009002208DF805000120D0
:101210008DF8070069460248FFF798FA1CBD0000E8
:10122000000002401CB501210846FFF7FBFD01202C
:101230008DF804000820009002208DF805000020A1
:101240008DF8060069460248FFF780FA1CBD0000D1
:10125000000002402DE9F04107460D4614461E46A7
:10126000306890B901F0C2F91E2D08DD206818B968
:10127000FFF708F9FFF760FA0120206003E0FFF7AD
:10128000DFF8FFF737FABDE8F08101F0C5F900BFDC
:10129000F9E7000070B505460A2000F051FFB5F5EA
:1012A000617F01DA002411E040F6AC50854204DD94
:1012B00017A000F011FE642408E0A5F56170642118
:1012C000484340F6282190FBF1F084B2134800888F
:1012D00000EE100AB8EE400ADFED110A60EE200AB7
:1012E00000EE104AB8EE400A9FED0E1A41EE000AD9
:1012F000BCEEE00A10EE100A84B221460A4800F063
:1013000042FB064804800A2000F01AFF70BD00006E
:10131000B9E2D5D5B9FDB5CD0D0A0000A80400206D
:101320003333333F9A99993E0000014010B58AB09B
:1013300024220C4901A8FEF743FF002400BF09E066
:1013400001A951F8240000F031FD4FF47A7000F04B
:10135000F7FE641C092CF3DB0120034908600AB086
:1013600010BD0000342C00081800002010B5FFF755
:10137000D7FA0020FFF72EFC174A02211020FFF7B2
:1013800058FC164A02212020FFF753FC144A022180
:101390003020FFF74EFC134A02214020FFF749FCA2
:1013A00011A202215020FFF769FC4FF47A7000F07F
:1013B000C7FE0EA202215020FFF760FC4FF47A70A6
:1013C00000F0BEFE0AA202215020FFF757FC0020C9
:1013D000FFF700FC10BD0000CF060020EF06002044
:1013E0008F060020AF0600202E0000002E2E0000E9
:1013F0002E2E2E0010B5FFF793FA0020FFF7EAFB20
:1014000000240CE0104901EB441221011031C8B254
:101410000221FFF70EFC642000F092FE641C042CF5
:10142000F0DB00240CE0094901EB441221011031EA
:10143000C8B20421FFF7FDFB642000F081FE641CAC
:10144000062CF0DB10BD00000F0700208F070020E6
:1014500070B5FFF7E7FE08212148FFF7EDF90821F5
:101460001F48FFF7E7F9142000F06AFE08211C4826
:10147000FFF7E2F91E2000F07FFEFFF7BBFE01241C
:1014800003E0012000F078FE641C08211448FFF7F7
:10149000C8F908B1642CF4DB002503E06D1C0120C1
:1014A00000F06AFE08210E48FFF7BBF908B9502D7D
:1014B000F4DB502D01DB002070BD002403E001208F
:1014C00000F05AFE641C08210548FFF7AAF908B18C
:1014D000502CF4DB502C01DB0020EDE70120EBE782
:1014E0000000024010B5FFF7A7FD40210A48FFF7B2
:1014F000A3F980210848FFF79FF9052000F03CFE82
:1015000080210548FFF796F9052000F035FE4021BF
:101510000148FFF78FF910BD0004024010B5FFF736
:101520008BFD40210A48FFF785F980210848FFF725
:1015300081F9022000F020FE40210548FFF77CF9E8
:10154000052000F019FE80210148FFF775F910BD54
:1015500000040240042808D14FF0E021096941F05D
:1015600004014FF0E022116107E04FF0E02109692A
:1015700021F004014FF0E022116170470448006837
:1015800020B103480068401E014908607047000010
:10159000A404002010B51548006840F470001349F9
:1015A00008601348006840F00100114908600020FD
:1015B0000F49083108600E4800680E4908400C4980
:1015C00008600D48091D0860081F006820F480208D
:1015D000091F0860002006490C310860FFF794FDE0
:1015E0004FF0006001498039086010BD88ED00E0CF
:1015F00000380240FFFFF6FE1030002410B5012134
:10160000064800F05FF940B14FF400710448FFF75D
:1016100015F90121014800F06FF810BD00040040E9
:101620000010024010B50121084800F04BF958B1F4
:10163000074802880748017807480078FFF734FD1B
:101640000121024800F058F810BD000000080040D9
:1016500096040020950400209404002010B5012178
:10166000044800F02FF918B10121024800F044F8B5
:1016700010BD0000000C004010B50121064800F02C
:1016800021F940B14FF4E0610448FFF7D7F8012198
:10169000014800F031F810BD001000400010024079
:1016A0000EB501210E20FFF7CDFB0020ADF80200A2
:1016B00042F20F70019042F2CF00ADF8000069468F
:1016C000064800F063F901221146044800F00BF9C6
:1016D0000121024800F013F80EBD00000008004090
:1016E00021B1028842F08002028004E002884FF6B5
:1016F0007F731A4002807047CA430282704721B14B
:10170000028842F00102028004E002884FF6FE7374
:101710001A400280704731B1B0F8442042F40042D0
:10172000A0F8442005E0B0F84420C2F30E02A0F86F
:101730004420704710B504465548844208D1012121
:101740000846FFF7AFFB00210120FFF7ABFB9DE050
:10175000B4F1804F08D101210846FFF783FB002137
:101760000120FFF77FFB91E04A48844208D1012124
:101770000220FFF777FB00210220FFF773FB85E0D3
:101780004548844208D101210420FFF76BFB00216A
:101790000420FFF767FB79E04048844208D101212B
:1017A0000820FFF75FFB00210820FFF75BFB6DE0DF
:1017B0003B48844208D101211020FFF753FB002150
:1017C0001020FFF74FFB61E03648844208D1012129
:1017D0002020FFF747FB00212020FFF743FB55E0C7
:1017E0003148844208D101210220FFF75BFB002130
:1017F0000220FFF757FB49E02C48844209D1012120
:101800000804FFF74FFB00214FF48030FFF74AFB3D
:101810003CE02748844209D101214804FFF742FBFC
:1018200000214FF40030FFF73DFB2FE021488442B8
:1018300009D101218804FFF735FB00214FF48020F6
:10184000FFF730FB22E01C48844208D101214020F0
:10185000FFF708FB00214020FFF704FB16E01748C4
:10186000844208D101218020FFF7FCFA002180206A
:10187000FFF7F8FA0AE01248844207D101218015E7
:10188000FFF7F0FA0021A015FFF7ECFA10BD0000F9
:10189000000001400004004000080040000C00402F
:1018A00000100040001400400004014000400140CE
:1018B000004401400048014000180040001C004066
:1018C0000020004030B50246002000230024158A85
:1018D00005EA0103958905EA010413B10CB1012061
:1018E00000E0002030BD1AB183890B43838102E000
:1018F00083898B438381704770B5002400220023C5
:10190000058C4FF6FE7635400584028C8388048B67
:101910004FF68F752C40B51E2C400D882C43751E3C
:101920002A408D892A434D882A43104DA84202D06F
:101930000F4DA84213D14FF6F7752A40CD892A439F
:101940004FF6FB752A408D882A434FF6FF652B40E2
:101950004FF6FF552B400D8A2B434D8A2B43838036
:1019600004838D684563028470BD0000000001405F
:10197000000401400A460021018B4FF6F77319401D
:1019800011430183704741637047000000220288C1
:10199000184B98420ED0184B98420BD0B0F1804FA4
:1019A00008D0164B984205D0154B984202D0154BE3
:1019B000984204D14FF68F731A404B881A43124B4A
:1019C000984207D0114B984204D04FF6FF431A407B
:1019D0000B891A4302804B68C3620B880385054B51
:1019E000984202D0044B984201D18B7A038601239E
:1019F0008382704700000140000401400004004061
:101A000000080040000C004000100040001400409E
:101A100010B540F22551054800F0B2F8012804D174
:101A200040F22551014800F083F810BD001001403C
:101A300070B540F22551314800F0A2F8012840D19C
:101A400040F225512D4800F073F82C4800F052F96F
:101A5000C4B22B4801680068401C294A106029481C
:101A600044542146284800F04AF9284800680028D4
:101A700043D02246214626A000F02EFAA4F13200DF
:101A800006281CD2DFE800F0090F121518034FF4E6
:101A900080712348FEF7CEFE12E04FF4807120489B
:101AA000FEF7CAFE0CE0FEF747FE09E0FEF722FE55
:101AB00006E0FEF703FD03E0FEF7C2FC00E000BF16
:101AC0001BE040F224410D4800F05AF8012814D1DF
:101AD0000A480088C5B20948001D0088C5B21148EF
:101AE000006838B110A10748FEF77CFB10B1012057
:101AF0000649086000200249086070BD00440040AB
:101B00001C00002064090020001001401800002083
:101B1000726573203D202563202025640D0A000096
:101B20000010024014000020434F4E4E4543540025
:101B300010B50022002340F66A14A14200D100BF74
:101B40000A1201249440A3B2DC43048010BD21B1E9
:101B5000828942F40052828104E082894DF6FF734B
:101B60001A408281704702460020B1F5007F00D103
:101B700000BF13880B400BB1012000E0002070472C
:101B800070B50246002400230025002040F66A16A6
:101B9000B14200D100BFC1F3421501F01F0301267D
:101BA00006FA03F3012D02D19689334006E0022D97
:101BB00002D1168A334001E0968A33400C12012686
:101BC00006FA04F41688344013B10CB1012000E089
:101BD000002070BDF0B5034600240026002500203B
:101BE00040F66A17B94200D100BF1846C1F342144B
:101BF00001F01F06012707FA06F5012C01D10C3070
:101C000004E0022C01D1103000E014301AB1076852
:101C10002F43076002E00768AF430760F0BD000094
:101C20002DE9FF4705460E460024A14600BFA04609
:101C3000B08900B100BF2C8A24F44054F0880443DA
:101C40002C82AC8941F20C608443B088318908430E
:101C5000718908430443AC81AC8A24F44074B08990
:101C60000443AC826846FFF72DF92048854202D034
:101C70001F48854202D1DDF80C9001E0DDF80890A4
:101C8000A88900F4004040B109EBC90000EB09103D
:101C900031684900B0FBF1F707E009EBC90000EB40
:101CA000091031688900B0FBF1F76420B7FBF0F050
:101CB00004012009642101FB1078A88900F4004088
:101CC00040B1322000EBC800B0FBF1F000F007009B
:101CD000044308E0322000EB08106421B0FBF1F06F
:101CE00000F00F0004432C81BDE8FF870010014085
:101CF0000014014001468888C0F308007047C1F312
:101D000008028280704700BFFEE7000000B587B080
:101D100001214804FFF796F801210820FFF782F817
:101D2000072205211F48FEF759FD072206211D48FD
:101D3000FEF754FD02208DF8180000208DF81A00DF
:101D40006020059001208DF81B0002208DF81900FD
:101D500005A91448FEF7FAFC4FF4E1300190002089
:101D6000ADF810000C20ADF80E000020ADF80C000E
:101D7000ADF80A00ADF8080001A90B48FFF750FFC5
:101D800001210948FFF7E3FE012240F225510648F0
:101D9000FFF720FF012240F224410348FFF71AFF1A
:101DA00007B000BD000C02400044004070B504467E
:101DB0002046FEF729FA064600250CE02178074860
:101DC000FFF79DFF00BF80210448FFF7CCFE0028ED
:101DD000F9D0641C6D1CB542F0DB70BD00440040BE
:101DE00000B587B001211020FFF74CF8012108460B
:101DF000FFF718F8072209211D48FEF7EFFC07221C
:101E00000A211B48FEF7EAFC02208DF8180000208A
:101E10008DF81A004FF4C060059001208DF81B006A
:101E200002208DF8190005A91148FEF78FFC4FF428
:101E3000E13001900020ADF810000C20ADF80E004C
:101E40000020ADF80C00ADF80A00ADF8080001A9BB
:101E50000848FFF7E5FE01210648FFF778FE01225A
:101E600040F225510348FFF7B5FE07B000BD000062
:101E7000000002400010014070B504460025FFF745
:101E800031FB7820FEF716FDFEF7F4FC2846FEF73E
:101E900011FDFEF7EFFC2046FEF70CFDFEF7EAFC15
:101EA000FFF73CFB70BD70B50546002444F04004CC
:101EB000FFF718FB7820FEF7FDFCFEF7DBFC204661
:101EC000FEF7F8FCFEF7D6FC2846FEF7F3FCFEF71B
:101ED000D1FCFFF723FB70BD0FB4054B10B503A970
:101EE000044A029800F02CF810BC5DF814FB0000C6
:101EF00011220008600900200FB4084B10B504A996
:101F000002AA039800F01CF8044602A9002000F081
:101F1000F3F8204610BC5DF814FB0000F92000081F
:101F200002E008C8121F08C1002AFAD170477047A2
:101F3000002001E001C1121F002AFBD17047000000
:101F40002DE9FF4F8BB09A460F460546002606E066
:101F500025280BD052460D9990476D1C761C287889
:101F60000028F5D10FB03046BDE8F08F0024A04620
:101F70000122604900E0044315F8013F203B02FACA
:101F800003F00842F7D128782E2817D115F8010F51
:101F900044F004042A280ED06FF02F022878A0F114
:101FA000300109290AD808EB880102EB410100EB56
:101FB00001086D1CF2E757F8048B6D1C287869281E
:101FC0003ED006DC0028CDD063280BD0642804D195
:101FD00036E0732810D075284BD052460D999047A3
:101FE000761C85E017F8040B8DF8000000208DF8B2
:101FF0000100E946012003E057F8049B4FF0FF3051
:1020000061074FF0000401D40AE0641C44450DDA76
:102010008442FADB19F804100029F6D106E0641CAA
:102020008442FCDB19F804100029F8D1264404E0AE
:1020300019F8010B52460D999047641EF8D257E0EB
:1020400001CF4FF00A0B002802DA40422D2102E0B6
:10205000210504D52B218DF82410012103E0E1078F
:1020600005D02021F7E70DF1200908910CE00021AF
:10207000F9E701CF4FF00A0BF9E75946FEF7CBF825
:1020800001F1300209F8012D0028F6D1ADEB09006D
:1020900000F1200B600701D44FF00108D84502DDA4
:1020A000A8EB0B0000E000208046002406E009A811
:1020B0005246005D0D999047641C761C0898844236
:1020C000F5DB04E0302052460D999047761CB8F1BC
:1020D0000001A8F10108F5DC05E019F8010B5246F2
:1020E0000D999047761CBBF10001ABF1010BF4DCBC
:1020F0006D1C34E7092801000A68531C0B6010703E
:102100007047000010B504466FF00400FFF722FA94
:10211000E11704EB5171C1F3C701074A1170104672
:10212000007800EB4001C1EBC0104FF6FF7101EAEF
:10213000C0000249088010BDA0040020A2040020B5
:1021400070B504464FF4077094FBF0F0C6B24FF43C
:10215000077094FBF0F100FB114085B205E04FF4ED
:10216000077000F02FF8701EC6B2002EF7D115B11F
:10217000284600F027F870BD0146114A12784A43FC
:102180004FF0E0235A6100229A611A46126942F028
:1021900001021A6100BF4FF0E022106900F0010255
:1021A0001AB100F48032002AF5D04FF0E022126913
:1021B00022F001024FF0E0231A6100229A61704779
:1021C000A00400200146114A12884A434FF0E02340
:1021D0005A6100229A611A46126942F001021A619C
:1021E00000BF4FF0E022106900F001021AB100F4C4
:1021F0008032002AF5D04FF0E022126922F001026D
:102200004FF0E0231A6100229A617047A204002077
:1022100070B504460D46A1B20548FFF770FD00BF3A
:1022200080210348FFF79FFC0028F9D070BD000013
:10223000001001402DE9F04107460C46002500261C
:1022400008E000F00FF8284485B20520FFF778FF7A
:10225000701CC6B2A642F4DB95FBF4F080B2BDE878
:10226000F081000010B50723012200210848FEF785
:1022700085F80748FEF7DEF800BF02210448FEF7A4
:1022800049F80028F9D00248FEF740F810BD0000D8
:102290000020014010B561480068012820D11420B9
:1022A000FFF74EFF10215E48FEF7BBFAA0B95DA014
:1022B000FFF712FEFFF79EF801205D4908608102DA
:1022C0005748FEF7B7FA00215A48FFF75CFB4FF476
:1022D00080715348FEF7B0FA0020504908609BE037
:1022E00055480068012832D15148006801282ED194
:1022F0001420FFF725FF20214948FEF792FA10BB72
:102300004EA0FFF7E9FDFFF731F8002048490860CB
:1023100000214848FFF737FB4FF480614048FEF743
:102320008BFA00214348FFF72EFB00214648FFF7B8
:10233000E6F94FF480713A48FEF77EFAFEF7DAF9D3
:1023400042A0FFF7C9FD00203B49086064E0434814
:10235000006801284DD136480068012849D1142071
:10236000FFF7EEFE40212E48FEF75BFA00283CD135
:10237000FEF730FC00F0B6F804210020FFF75AFF0A
:10238000374908800A463749374800F0EFF8FFF729
:1023900087F928E004210020FFF74CFF304908802E
:1023A0000A463049304800F0E1F8304B304A2D48B9
:1023B00001782D480078FEF74DFF18480068012885
:1023C00003D01D480068012800D10DE029480068AD
:1023D000012808D12548006880F0010023490860E1
:1023E000002024490860D5E700BF00201B49086091
:1023F00012E02048006801280ED10D48006801282D
:102400000AD11420FFF79CFE4FF400511A48FEF742
:1024100008FA00201749086010BD000000000020E5
:1024200000100240B3C9B9A6BFAABBFA0D0A00004A
:10243000900400200000014004000020B3C9B9A6A8
:10244000B9D8BBFA0D0A000000080040CDA3D6B9E8
:10245000B7A2CBCDCAFDBEDD0D0A000008000020EA
:102460009604002095040020940400209C04002081
:10247000980400200C00002000080240A820FFF76C
:1024800041FEFEF7A7FAFEF7E1F9FEF73DF900205D
:10249000FEF7A0FBFEF78CFCFEF772F8FEF796F84D
:1024A000FEF745F8FEF7DFFAFFF730FCFFF798FC80
:1024B000FEF7B8FAFDF7CEFFFEF7D5FAFEF718FCE7
:1024C000FEF734FF03A0FFF707FD01E0FFF7E2FE90
:1024D000FCE70000CAFDBEDDB7A2CBCDCDEAB3C993
:1024E0000D0A000010B5FEF7B1F9FEF719FA002049
:1024F000FEF770FB174A00211020FEF79AFB164AE0
:1025000000212020FEF795FB14A200213020FEF7C9
:10251000B5FB134A02211020FEF78BFB0E4A022165
:102520002020FEF786FB0DA202213020FEF7A6FB3D
:102530000C4A04211020FEF77CFB0B4A04212020CA
:10254000FEF777FB05A204213020FEF797FB002061
:1025500010BD0000AF040020CF0400203A000000AE
:10256000EF0400204F0500206F05002070B58AB0F1
:1025700005460E4614462088FEF78CFE2088B0F5EE
:102580007A7F04DA17A204215820FEF777FB22880D
:1025900015A105A8FFF7B0FC05AA04214020FEF70D
:1025A0006DFB31462846FDF795FFA0B132780EA1AC
:1025B0006846FFF7A1FC6A4600214020FEF75EFB5B
:1025C0002A7809A16846FFF797FC6A460221402055
:1025D000FEF754FB00BF4FF4FA70FFF7B1FD0AB0ED
:1025E00070BD0000200000002564000010B500242C
:1025F0000CE0084901EB441221014031C8B2062128
:10260000FEF717FB6420FFF79BFD641C042CF0DB36
:1026100010BD00004F08002010B500240CE0084950
:1026200001EB441221014031C8B20621FEF701FB43
:102630006420FFF785FD641C042CF0DB10BD000056
:10264000CF08002000000000000000000000000093
:1026500000000000000000F800000000000000334F
:102660003000000000100C06100C060000000000F6
:102670000000000040C07840C0784000043F0404DF
:102680003F040400007088FC08300000001820FFA0
:10269000211E0000F008F000E018000000211C03DB
:1026A0001E211E0000F00888700000001E21232457
:1026B0001927211010160E00000000000000000075
:1026C00000000000000000E0180402000000000705
:1026D0001820400000020418E0000000004020180C
:1026E00007000000404080F0804040000202010FDF
:1026F00001020200000000F0000000000101011FC3
:1027000001010100000000000000000080B0700026
:1027100000000000000000000000000000010101B6
:102720000101010100000000000000000030300045
:10273000000000000000000080601804006018061F
:102740000100000000E010080810E000000F102059
:1027500020100F00001010F8000000000020203FA3
:10276000202000000070080808887000003028242D
:1027700022213000003008888848300000182020CE
:1027800020110E000000C02010F8000000070424F3
:10279000243F240000F80888880808000019212038
:1027A00020110E0000E0108888180000000F112092
:1027B00020110E0000380808C83808000000003F4B
:1027C000000000000070880808887000001C2221AA
:1027D00021221C0000E010080810E0000000312257
:1027E00022110F00000000C0C000000000000030F7
:1027F0003000000000000080000000000000806049
:1028000000000000000080402010080000010204C9
:1028100008102000404040404040400004040404B0
:10282000040404000008102040800000002010086C
:1028300004020100007048080808F00000000030A1
:1028400036010000C030C828E810E000071827242F
:1028500023140B000000C038E0000000203C2302DD
:102860000227382008F8888888700000203F202040
:1028700020110E00C0300808080838000718202072
:102880002010080008F808080810E000203F202069
:1028900020100F0008F88888E8081000203F20204A
:1028A0002320180008F88888E8081000203F20003E
:1028B00003000000C0300808083800000718202076
:1028C000221E020008F808000008F808203F210135
:1028D00001213F20000808F8080800000020203FE0
:1028E0002020000000000808F8080800C080808050
:1028F0007F00000008F888C028180800203F200149
:102900002638200008F8080000000000203F2020A2
:102910002020300008F8F800F8F80800203F003FB9
:10292000003F200008F830C00008F808203F2000D1
:1029300007183F00E01008080810E0000F102020E2
:1029400020100F0008F808080808F000203F2101B7
:1029500001010000E01008080810E0000F1824240E
:1029600038504F0008F8888888887000203F200081
:10297000030C302000708808080838000038202137
:1029800021221C00180808F8080818000000203F41
:102990002000000008F808000008F808001F2020A8
:1029A00020201F000878880000C838080000073879
:1029B0000E010000F80800F80008F800033C0700CA
:1029C000073C0300081868808068180820302C0332
:1029D000032C30200838C800C83808000000203F09
:1029E0002000000010080808C838080020382621F8
:1029F00020201800000000FE020202000000007FFC
:102A000040404000000C30C0000000000000000109
:102A10000638C00000020202FE00000000404040F4
:102A20007F00000000000402020204000000000019
:102A30000000000000000000000000008080808096
:102A4000808080800002020400000000000000007E
:102A50000000000000008080808000000019242217
:102A600022223F2008F8008080000000003F112053
:102A700020110E000000008080800000000E112058
:102A800020201100000000808088F800000E112036
:102A900020103F200000808080800000001F222244
:102AA00022221300008080F0888888180020203FB0
:102AB000202000000000808080808000006B9494C3
:102AC0009493600008F8008080800000203F21007F
:102AD00000203F2000809898000000000020203F48
:102AE00020200000000000809898000000C0808036
:102AF000807F000008F8000080808000203F2402D2
:102B00002D302000000808F8000000000020203FC1
:102B1000202000008080808080808000203F200076
:102B20003F20003F8080008080800000203F210007
:102B300000203F200000808080800000001F2020B7
:102B400020201F00808000808000000080FFA120E6
:102B500020110E000000008080808000000E1120F7
:102B600020A0FF80808080008080800020203F2186
:102B70002000010000008080808080000033242439
:102B800024241900008080E0808000000000001FE5
:102B9000202000008080000000808000001F202096
:102BA00020103F20808080000080808000010E3057
:102BB0000806010080800080008080800F300C03B8
:102BC0000C300F0000808000808080000020312EBB
:102BD0000E312000808080000080808080818E7097
:102BE0001806010000808080808080000021302C49
:102BF0002221300000000000807C02020000000062
:102C0000003F404000000000FF0000000000000006
:102C1000FF0000000002027C800000000040403FF6
:102C20000000000000060101020204040000000090
:102C300000000000702D0008D82C0008E02C0008CF
:102C4000782D0008D82C0008F02C0008C82C0008AB
:102C50003C2D0008642D0008702D0008802C000811
:102C6000B82C0008782D0008D82C0008842D000806
:102C7000882C0008542D0008A82C0008102D0008EE
:102C8000415445310A0A000041542B43574A4150F0
:102C90003A3D226871796A6373222C226871796ADD
:102CA00032303232220D0A0041542B4349504D4FED
:102CB00044453D310D0A000041542B43574D4F44CC
:102CC000453D310D0A00000041542B4349504D55FC
:102CD000583D310D0A000000415445310D0A0000F5
:102CE00041542B43574D4F44453D320D0A000000DF
:102CF00041542B43575341503D22636A222C2232C8
:102D000035373336373231222C312C340D0A00005E
:102D100041542B43495053544152543A3D22544359
:102D200050222C223139322E3136382E39312E3183
:102D30003133222C383838380D0A000041542B43E7
:102D400049505345525645523D312C383838380D8C
:102D50000A00000041542B4349504D55583D4F0D3A
:102D60000A00000041542B43494653520D0A00000B
:102D700041540D0A0000000041542B5253540D0AD7
:102D80000000000041542B43574C41500D6E000091
:102D9000B02D00080000002064090000680200084F
:102DA0007C3200086409002004080000301F00087D
:102DB000022300011050E90E1A0E490D8F0CD60B9C
:102DC000310B8F0AF7096A09E0086208E8077807FB
:102DD0000D07A7064806ED0598054705FB04B30453
:102DE00070043104F403BC03860353032303F60287
:102DF000CB02A4027D025A0238021802FA016400D2
:102E0000190002001804321608100404000D0C12F8
:102E10000F1032110C300404000C04320208E12CB3
:102E20008128100402001420521608012A54121B93
:102E300004321D3C4160611052200852220C121BCA
:102E40001C921D2C32148892040472020492140401
:102E50002174219C810852061801100821D03004E9
:102E60000D000AA41219C892183C920F08520D487E
:102E70003211D802770880521280120FBC25B85246
:102E80000D0801101041B4520FD0812002110434FA
:102E9000612CE110C1446584A1045216DC72142433
:102EA000E1108108E1E021981A0D1245647202D008
:102EB00041F8451C256C56127812112CA144761449
:102EC00080C10C52186C521B0C0211187C7A11BC78
:102ED00029D0DE020403610C453001120C61380573
:102EE00010A47208F40126A02D4003161E485A1D96
:102EF000F09E192403321E1441042D10036D90031B
:102F00005A1880610C2D480321541C041900102C00
:102F1000040221084412082845C4652012003C0E12
:102F200020FF890420091060028C0000FE9201122B
:102F3000FE6D100A04047E01407E42427E021C04A3
:102F4000427E40AB042009FC242424FC25262408CE
:102F50004012040040308F80844C55252525554C67
:102F600080808040413F7140100B4448507F40407A
:102F70007F5048444020093E22E2223E00FE2201CA
:102F8000200DE20200203F201F1111007F44011399
:102F9000474070100B04F484D4A5A6A4D484F40C88
:102FA000118B1C250202123A1613121A3242827E2B
:102FB00000004040424458C0407F40C05048464016
:102FC00040008080402018074205133F40011278DE
:102FD000BB4019424242FE0042A29E82A2C2BE00F3
:102FE00000806F080828CF00002FC808100A20C2F0
:102FF0000C8002F21212FE02300412F202E0140AF5
:1030000000FF4A49484848494920115D441CFF5087
:103010004C004454547F5454544400080601FF01AA
:10302000060000FF151555957F201007201808C8C9
:1030300038CF50469820040B21040201FF4021069E
:103040000A11202010041014D4591009FC525252B5
:10305000D3121010D0100750575555557F041357F1
:1030600050D04006202020BEAA0112BE0C11C11370
:1030700080AF0C12FF1012AF3F200B0004244484D9
:10308000649C40300FD01618B011A1240C824C2043
:1030900018060106182040802012CC841304020474
:1030A0001F04FC5A06200E40201F20404F4442407F
:1030B0007F424443A010071011161010F0882A1305
:1030C0004D10108181414121110D030D112141410C
:1030D0008181A02405D0FF9010762602FF180400FD
:1030E000040336440483601F621560100400F888EE
:1030F00001100B0808FF08090AC80800801B1011FE
:1031000010201F80402116182641F800080808F8F2
:103110000410051010FF10661950000E4030101FEB
:10312000088848300E014080403FC0312030058083
:103130008888FF035280201807504C4340405F02AC
:1031400049C55C0501E21CE05907191F1004100C69
:1031500003C92805030C3040A018099453321E32CD
:10316000521000CF3F427E7C0743FF49013D1E03C2
:1031700027222A6C2404A280A274132A22E0140FAE
:10318000080A6A8A8A9AAA8A8ACA0F20C000FC465C
:1031900008FE34040808A88024090402FF40200027
:1031A0000304FF19E03C041060806803194C2BC035
:1031B00030B01B4043AE19FF434241A0200C2232E5
:1031C0002AA6A2622111098101A118054222130B2E
:1031D000DA180702020A122346A0141630AC633034
:1031E0000088C8A8998E88A8C88800226722121271
:1031F00080F035802271B01406F8888C8A89855E4B
:10320000F83C083EFF3C03334444C010044044C42F
:103210000F86408074073C131014B8408035E0548A
:103220000A14E4AFA4A4A4AFE404E01409894B2A6F
:103230001A0E1A2A4B5020041010900131401929FF
:103240001D3103140460203FCB15402004102040A2
:103250007319DF19E11DBE032F23226504210130FC
:103260000442827F08036102028015DF200402030A
:0C32700004043C05060708095F09000083
:040000050800018965
:00000001FF
